{
  "abi": [
    {
      "inputs": [
        {
          "internalType": "string",
          "name": "_name",
          "type": "string"
        },
        {
          "internalType": "string",
          "name": "_symbol",
          "type": "string"
        },
        {
          "internalType": "string",
          "name": "_baseURI",
          "type": "string"
        }
      ],
      "stateMutability": "nonpayable",
      "type": "constructor"
    },
    {
      "inputs": [],
      "name": "NoEthBalance",
      "type": "error"
    },
    {
      "inputs": [],
      "name": "TokenDoesNotExist",
      "type": "error"
    },
    {
      "anonymous": false,
      "inputs": [
        {
          "indexed": true,
          "internalType": "address",
          "name": "owner",
          "type": "address"
        },
        {
          "indexed": true,
          "internalType": "address",
          "name": "approved",
          "type": "address"
        },
        {
          "indexed": true,
          "internalType": "uint256",
          "name": "tokenId",
          "type": "uint256"
        }
      ],
      "name": "Approval",
      "type": "event"
    },
    {
      "anonymous": false,
      "inputs": [
        {
          "indexed": true,
          "internalType": "address",
          "name": "owner",
          "type": "address"
        },
        {
          "indexed": true,
          "internalType": "address",
          "name": "operator",
          "type": "address"
        },
        {
          "indexed": false,
          "internalType": "bool",
          "name": "approved",
          "type": "bool"
        }
      ],
      "name": "ApprovalForAll",
      "type": "event"
    },
    {
      "anonymous": false,
      "inputs": [
        {
          "indexed": true,
          "internalType": "address",
          "name": "previousOwner",
          "type": "address"
        },
        {
          "indexed": true,
          "internalType": "address",
          "name": "newOwner",
          "type": "address"
        }
      ],
      "name": "OwnershipTransferred",
      "type": "event"
    },
    {
      "anonymous": false,
      "inputs": [
        {
          "indexed": true,
          "internalType": "address",
          "name": "from",
          "type": "address"
        },
        {
          "indexed": true,
          "internalType": "address",
          "name": "to",
          "type": "address"
        },
        {
          "indexed": true,
          "internalType": "uint256",
          "name": "tokenId",
          "type": "uint256"
        }
      ],
      "name": "Transfer",
      "type": "event"
    },
    {
      "inputs": [
        {
          "internalType": "address",
          "name": "to",
          "type": "address"
        },
        {
          "internalType": "uint256",
          "name": "tokenId",
          "type": "uint256"
        }
      ],
      "name": "approve",
      "outputs": [],
      "stateMutability": "nonpayable",
      "type": "function"
    },
    {
      "inputs": [
        {
          "internalType": "address",
          "name": "owner",
          "type": "address"
        }
      ],
      "name": "balanceOf",
      "outputs": [
        {
          "internalType": "uint256",
          "name": "",
          "type": "uint256"
        }
      ],
      "stateMutability": "view",
      "type": "function"
    },
    {
      "inputs": [],
      "name": "baseURI",
      "outputs": [
        {
          "internalType": "string",
          "name": "",
          "type": "string"
        }
      ],
      "stateMutability": "view",
      "type": "function"
    },
    {
      "inputs": [
        {
          "internalType": "uint256",
          "name": "tokenId",
          "type": "uint256"
        }
      ],
      "name": "getApproved",
      "outputs": [
        {
          "internalType": "address",
          "name": "",
          "type": "address"
        }
      ],
      "stateMutability": "view",
      "type": "function"
    },
    {
      "inputs": [
        {
          "internalType": "address",
          "name": "_owner",
          "type": "address"
        }
      ],
      "name": "getTokenIds",
      "outputs": [
        {
          "internalType": "uint256[]",
          "name": "",
          "type": "uint256[]"
        }
      ],
      "stateMutability": "view",
      "type": "function"
    },
    {
      "inputs": [
        {
          "internalType": "address",
          "name": "owner",
          "type": "address"
        },
        {
          "internalType": "address",
          "name": "operator",
          "type": "address"
        }
      ],
      "name": "isApprovedForAll",
      "outputs": [
        {
          "internalType": "bool",
          "name": "",
          "type": "bool"
        }
      ],
      "stateMutability": "view",
      "type": "function"
    },
    {
      "inputs": [],
      "name": "maxAmountPerTrx",
      "outputs": [
        {
          "internalType": "uint256",
          "name": "",
          "type": "uint256"
        }
      ],
      "stateMutability": "view",
      "type": "function"
    },
    {
      "inputs": [],
      "name": "maxSupply",
      "outputs": [
        {
          "internalType": "uint256",
          "name": "",
          "type": "uint256"
        }
      ],
      "stateMutability": "view",
      "type": "function"
    },
    {
      "inputs": [
        {
          "internalType": "uint256",
          "name": "amount",
          "type": "uint256"
        }
      ],
      "name": "mintNft",
      "outputs": [],
      "stateMutability": "payable",
      "type": "function"
    },
    {
      "inputs": [],
      "name": "name",
      "outputs": [
        {
          "internalType": "string",
          "name": "",
          "type": "string"
        }
      ],
      "stateMutability": "view",
      "type": "function"
    },
    {
      "inputs": [],
      "name": "owner",
      "outputs": [
        {
          "internalType": "address",
          "name": "",
          "type": "address"
        }
      ],
      "stateMutability": "view",
      "type": "function"
    },
    {
      "inputs": [
        {
          "internalType": "uint256",
          "name": "tokenId",
          "type": "uint256"
        }
      ],
      "name": "ownerOf",
      "outputs": [
        {
          "internalType": "address",
          "name": "",
          "type": "address"
        }
      ],
      "stateMutability": "view",
      "type": "function"
    },
    {
      "inputs": [],
      "name": "price",
      "outputs": [
        {
          "internalType": "uint256",
          "name": "",
          "type": "uint256"
        }
      ],
      "stateMutability": "view",
      "type": "function"
    },
    {
      "inputs": [],
      "name": "renounceOwnership",
      "outputs": [],
      "stateMutability": "nonpayable",
      "type": "function"
    },
    {
      "inputs": [
        {
          "internalType": "address",
          "name": "from",
          "type": "address"
        },
        {
          "internalType": "address",
          "name": "to",
          "type": "address"
        },
        {
          "internalType": "uint256",
          "name": "tokenId",
          "type": "uint256"
        }
      ],
      "name": "safeTransferFrom",
      "outputs": [],
      "stateMutability": "nonpayable",
      "type": "function"
    },
    {
      "inputs": [
        {
          "internalType": "address",
          "name": "_to",
          "type": "address"
        },
        {
          "internalType": "uint256",
          "name": "_tokenId",
          "type": "uint256"
        }
      ],
      "name": "safeTransferFrom",
      "outputs": [],
      "stateMutability": "nonpayable",
      "type": "function"
    },
    {
      "inputs": [
        {
          "internalType": "address",
          "name": "from",
          "type": "address"
        },
        {
          "internalType": "address",
          "name": "to",
          "type": "address"
        },
        {
          "internalType": "uint256",
          "name": "tokenId",
          "type": "uint256"
        },
        {
          "internalType": "bytes",
          "name": "data",
          "type": "bytes"
        }
      ],
      "name": "safeTransferFrom",
      "outputs": [],
      "stateMutability": "nonpayable",
      "type": "function"
    },
    {
      "inputs": [
        {
          "internalType": "address",
          "name": "operator",
          "type": "address"
        },
        {
          "internalType": "bool",
          "name": "approved",
          "type": "bool"
        }
      ],
      "name": "setApprovalForAll",
      "outputs": [],
      "stateMutability": "nonpayable",
      "type": "function"
    },
    {
      "inputs": [
        {
          "internalType": "bytes4",
          "name": "interfaceId",
          "type": "bytes4"
        }
      ],
      "name": "supportsInterface",
      "outputs": [
        {
          "internalType": "bool",
          "name": "",
          "type": "bool"
        }
      ],
      "stateMutability": "view",
      "type": "function"
    },
    {
      "inputs": [],
      "name": "symbol",
      "outputs": [
        {
          "internalType": "string",
          "name": "",
          "type": "string"
        }
      ],
      "stateMutability": "view",
      "type": "function"
    },
    {
      "inputs": [
        {
          "internalType": "uint256",
          "name": "tokenId",
          "type": "uint256"
        }
      ],
      "name": "tokenURI",
      "outputs": [
        {
          "internalType": "string",
          "name": "",
          "type": "string"
        }
      ],
      "stateMutability": "view",
      "type": "function"
    },
    {
      "inputs": [],
      "name": "totalSupply",
      "outputs": [
        {
          "internalType": "uint256",
          "name": "",
          "type": "uint256"
        }
      ],
      "stateMutability": "view",
      "type": "function"
    },
    {
      "inputs": [
        {
          "internalType": "address",
          "name": "from",
          "type": "address"
        },
        {
          "internalType": "address",
          "name": "to",
          "type": "address"
        },
        {
          "internalType": "uint256",
          "name": "tokenId",
          "type": "uint256"
        }
      ],
      "name": "transferFrom",
      "outputs": [],
      "stateMutability": "nonpayable",
      "type": "function"
    },
    {
      "inputs": [
        {
          "internalType": "address",
          "name": "newOwner",
          "type": "address"
        }
      ],
      "name": "transferOwnership",
      "outputs": [],
      "stateMutability": "nonpayable",
      "type": "function"
    },
    {
      "inputs": [
        {
          "internalType": "address",
          "name": "_to",
          "type": "address"
        },
        {
          "internalType": "uint256",
          "name": "_tokenId",
          "type": "uint256"
        }
      ],
      "name": "transferTokens",
      "outputs": [],
      "stateMutability": "nonpayable",
      "type": "function"
    },
    {
      "inputs": [],
      "name": "vaultAddress",
      "outputs": [
        {
          "internalType": "address payable",
          "name": "",
          "type": "address"
        }
      ],
      "stateMutability": "view",
      "type": "function"
    },
    {
      "inputs": [],
      "name": "withdraw",
      "outputs": [],
      "stateMutability": "nonpayable",
      "type": "function"
    }
  ],
  "bytecode": {
    "object": "0x60e06040526000600755612710608052670214e8348c4f000060a052600560c0523480156200002d57600080fd5b5060405162002313380380620023138339810160408190526200005091620001d2565b82826000620000608382620002f2565b5060016200006f8282620002f2565b5050506200008c62000086620000b760201b60201c565b620000bb565b60086200009a8282620002f2565b5050600980546001600160a01b0319163317905550620003be9050565b3390565b600680546001600160a01b038381166001600160a01b0319831681179093556040519116919082907f8be0079c531659141344cd1fd0a4f28419497f9722a3daafe3b4186f6b6457e090600090a35050565b634e487b7160e01b600052604160045260246000fd5b600082601f8301126200013557600080fd5b81516001600160401b03808211156200015257620001526200010d565b604051601f8301601f19908116603f011681019082821181831017156200017d576200017d6200010d565b816040528381526020925086838588010111156200019a57600080fd5b600091505b83821015620001be57858201830151818301840152908201906200019f565b600093810190920192909252949350505050565b600080600060608486031215620001e857600080fd5b83516001600160401b03808211156200020057600080fd5b6200020e8783880162000123565b945060208601519150808211156200022557600080fd5b620002338783880162000123565b935060408601519150808211156200024a57600080fd5b50620002598682870162000123565b9150509250925092565b600181811c908216806200027857607f821691505b6020821081036200029957634e487b7160e01b600052602260045260246000fd5b50919050565b601f821115620002ed57600081815260208120601f850160051c81016020861015620002c85750805b601f850160051c820191505b81811015620002e957828155600101620002d4565b5050505b505050565b81516001600160401b038111156200030e576200030e6200010d565b62000326816200031f845462000263565b846200029f565b602080601f8311600181146200035e5760008415620003455750858301515b600019600386901b1c1916600185901b178555620002e9565b600085815260208120601f198616915b828110156200038f578886015182559484019460019091019084016200036e565b5085821015620003ae5787850151600019600388901b60f8161c191681555b5050505050600190811b01905550565b60805160a05160c051611f106200040360003960008181610264015261076b01526000818161040101526108440152600081816104e201526107cf0152611f106000f3fe60806040526004361061019c5760003560e01c80636c0360eb116100ec578063b88d4fde1161008a578063d004b03611610064578063d004b036146104a3578063d5abeb01146104d0578063e985e9c514610504578063f2fde38b1461052457600080fd5b8063b88d4fde14610443578063bec3fa1714610463578063c87b56dd1461048357600080fd5b80638da5cb5b116100c65780638da5cb5b146103bc57806395d89b41146103da578063a035b1fe146103ef578063a22cb4651461042357600080fd5b80636c0360eb1461037257806370a0823114610387578063715018a6146103a757600080fd5b806318160ddd1161015957806342842e0e1161013357806342842e0e146102f2578063430bf08a14610312578063551026bb146103325780636352211e1461035257600080fd5b806318160ddd146102a757806323b872dd146102bd5780633ccfd60b146102dd57600080fd5b806301ffc9a7146101a157806306fdde03146101d6578063081812fc146101f8578063095ea7b3146102305780630b7ec171146102525780630d730acc14610294575b600080fd5b3480156101ad57600080fd5b506101c16101bc36600461190e565b610544565b60405190151581526020015b60405180910390f35b3480156101e257600080fd5b506101eb610596565b6040516101cd9190611982565b34801561020457600080fd5b50610218610213366004611995565b610628565b6040516001600160a01b0390911681526020016101cd565b34801561023c57600080fd5b5061025061024b3660046119ca565b61064f565b005b34801561025e57600080fd5b506102867f000000000000000000000000000000000000000000000000000000000000000081565b6040519081526020016101cd565b6102506102a2366004611995565b610769565b3480156102b357600080fd5b5061028660075481565b3480156102c957600080fd5b506102506102d83660046119f4565b61091c565b3480156102e957600080fd5b5061025061094d565b3480156102fe57600080fd5b5061025061030d3660046119f4565b6109b0565b34801561031e57600080fd5b50600954610218906001600160a01b031681565b34801561033e57600080fd5b5061025061034d3660046119ca565b6109cb565b34801561035e57600080fd5b5061021861036d366004611995565b610b8f565b34801561037e57600080fd5b506101eb610bef565b34801561039357600080fd5b506102866103a2366004611a30565b610c7d565b3480156103b357600080fd5b50610250610d03565b3480156103c857600080fd5b506006546001600160a01b0316610218565b3480156103e657600080fd5b506101eb610d17565b3480156103fb57600080fd5b506102867f000000000000000000000000000000000000000000000000000000000000000081565b34801561042f57600080fd5b5061025061043e366004611a4b565b610d26565b34801561044f57600080fd5b5061025061045e366004611a9d565b610d31565b34801561046f57600080fd5b5061025061047e3660046119ca565b610d63565b34801561048f57600080fd5b506101eb61049e366004611995565b610f21565b3480156104af57600080fd5b506104c36104be366004611a30565b610fb1565b6040516101cd9190611b79565b3480156104dc57600080fd5b506102867f000000000000000000000000000000000000000000000000000000000000000081565b34801561051057600080fd5b506101c161051f366004611bbd565b61101d565b34801561053057600080fd5b5061025061053f366004611a30565b61104b565b60006001600160e01b031982166380ac58cd60e01b148061057557506001600160e01b03198216635b5e139f60e01b145b8061059057506301ffc9a760e01b6001600160e01b03198316145b92915050565b6060600080546105a590611bf0565b80601f01602080910402602001604051908101604052809291908181526020018280546105d190611bf0565b801561061e5780601f106105f35761010080835404028352916020019161061e565b820191906000526020600020905b81548152906001019060200180831161060157829003601f168201915b5050505050905090565b6000610633826110c4565b506000908152600460205260409020546001600160a01b031690565b600061065a82610b8f565b9050806001600160a01b0316836001600160a01b0316036106cc5760405162461bcd60e51b815260206004820152602160248201527f4552433732313a20617070726f76616c20746f2063757272656e74206f776e656044820152603960f91b60648201526084015b60405180910390fd5b336001600160a01b03821614806106e857506106e8813361101d565b61075a5760405162461bcd60e51b815260206004820152603d60248201527f4552433732313a20617070726f76652063616c6c6572206973206e6f7420746f60448201527f6b656e206f776e6572206f7220617070726f76656420666f7220616c6c00000060648201526084016106c3565b6107648383611123565b505050565b7f00000000000000000000000000000000000000000000000000000000000000008111156107cd5760405162461bcd60e51b815260206004820152601160248201527043616e6e6f74206d696e74203e2035202160781b60448201526064016106c3565b7f0000000000000000000000000000000000000000000000000000000000000000816007546107fc9190611c40565b111561083e5760405162461bcd60e51b81526020600482015260116024820152705265616368206d617820737570706c792160781b60448201526064016106c3565b610868817f0000000000000000000000000000000000000000000000000000000000000000611c53565b3410156108a95760405162461bcd60e51b815260206004820152600f60248201526e4e65656420746f207061792075702160881b60448201526064016106c3565b60005b8181101561091857600060075460016108c59190611c40565b90506108d13382611191565b600780549060006108e183611c6a565b9091555050336000908152600a6020908152604082208054600181018255908352912001558061091081611c6a565b9150506108ac565b5050565b610926338261131c565b6109425760405162461bcd60e51b81526004016106c390611c83565b61076483838361137b565b6109556114df565b476000036109765760405163150111e760e31b815260040160405180910390fd5b60095460405147916001600160a01b03169082156108fc029083906000818181858888f19350505050158015610918573d6000803e3d6000fd5b61076483838360405180602001604052806000815250610d31565b6000818152600260205260409020546001600160a01b0316610a295760405162461bcd60e51b8152602060048201526017602482015276151bdad95b88125108191bd95cc81b9bdd08195e1a5cdd604a1b60448201526064016106c3565b610a33338261131c565b610a775760405162461bcd60e51b8152602060048201526015602482015274139bdd081bdddb995c881bdc88185c1c1c9bdd9959605a1b60448201526064016106c3565b6000610a8282610b8f565b6001600160a01b0381166000908152600a602052604081209192505b8154811015610b525783828281548110610aba57610aba611cd0565b906000526020600020015403610b405781548290610ada90600190611ce6565b81548110610aea57610aea611cd0565b9060005260206000200154828281548110610b0757610b07611cd0565b906000526020600020018190555081805480610b2557610b25611cf9565b60019003818190600052602060002001600090559055610b52565b80610b4a81611c6a565b915050610a9e565b506001600160a01b0384166000908152600a6020908152604082208054600181018255908352912001839055610b898285856109b0565b50505050565b6000818152600260205260408120546001600160a01b0316806105905760405162461bcd60e51b8152602060048201526018602482015277115490cdcc8c4e881a5b9d985b1a59081d1bdad95b88125160421b60448201526064016106c3565b60088054610bfc90611bf0565b80601f0160208091040260200160405190810160405280929190818152602001828054610c2890611bf0565b8015610c755780601f10610c4a57610100808354040283529160200191610c75565b820191906000526020600020905b815481529060010190602001808311610c5857829003601f168201915b505050505081565b60006001600160a01b038216610ce75760405162461bcd60e51b815260206004820152602960248201527f4552433732313a2061646472657373207a65726f206973206e6f7420612076616044820152683634b21037bbb732b960b91b60648201526084016106c3565b506001600160a01b031660009081526003602052604090205490565b610d0b6114df565b610d156000611539565b565b6060600180546105a590611bf0565b61091833838361158b565b610d3b338361131c565b610d575760405162461bcd60e51b81526004016106c390611c83565b610b8984848484611659565b6000818152600260205260409020546001600160a01b0316610dc15760405162461bcd60e51b8152602060048201526017602482015276151bdad95b88125108191bd95cc81b9bdd08195e1a5cdd604a1b60448201526064016106c3565b610dcb338261131c565b610e0f5760405162461bcd60e51b8152602060048201526015602482015274139bdd081bdddb995c881bdc88185c1c1c9bdd9959605a1b60448201526064016106c3565b6000610e1a82610b8f565b6001600160a01b0381166000908152600a602052604081209192505b8154811015610eea5783828281548110610e5257610e52611cd0565b906000526020600020015403610ed85781548290610e7290600190611ce6565b81548110610e8257610e82611cd0565b9060005260206000200154828281548110610e9f57610e9f611cd0565b906000526020600020018190555081805480610ebd57610ebd611cf9565b60019003818190600052602060002001600090559055610eea565b80610ee281611c6a565b915050610e36565b506001600160a01b0384166000908152600a6020908152604082208054600181018255908352912001839055610b8982858561091c565b60606000610f2e83610b8f565b6001600160a01b031603610f555760405163677510db60e11b815260040160405180910390fd5b600060088054610f6490611bf0565b905011610f805760405180602001604052806000815250610590565b6008610f8b8361168c565b604051602001610f9c929190611d2b565b60405160208183030381529060405292915050565b6001600160a01b0381166000908152600a602090815260409182902080548351818402810184019094528084526060939283018282801561101157602002820191906000526020600020905b815481526020019060010190808311610ffd575b50505050509050919050565b6001600160a01b03918216600090815260056020908152604080832093909416825291909152205460ff1690565b6110536114df565b6001600160a01b0381166110b85760405162461bcd60e51b815260206004820152602660248201527f4f776e61626c653a206e6577206f776e657220697320746865207a65726f206160448201526564647265737360d01b60648201526084016106c3565b6110c181611539565b50565b6000818152600260205260409020546001600160a01b03166110c15760405162461bcd60e51b8152602060048201526018602482015277115490cdcc8c4e881a5b9d985b1a59081d1bdad95b88125160421b60448201526064016106c3565b600081815260046020526040902080546001600160a01b0319166001600160a01b038416908117909155819061115882610b8f565b6001600160a01b03167f8c5be1e5ebec7d5bd14f71427d1e84f3dd0314c0f7b2291e5b200ac8c7c3b92560405160405180910390a45050565b6001600160a01b0382166111e75760405162461bcd60e51b815260206004820181905260248201527f4552433732313a206d696e7420746f20746865207a65726f206164647265737360448201526064016106c3565b6000818152600260205260409020546001600160a01b03161561124c5760405162461bcd60e51b815260206004820152601c60248201527f4552433732313a20746f6b656e20616c7265616479206d696e7465640000000060448201526064016106c3565b6000818152600260205260409020546001600160a01b0316156112b15760405162461bcd60e51b815260206004820152601c60248201527f4552433732313a20746f6b656e20616c7265616479206d696e7465640000000060448201526064016106c3565b6001600160a01b038216600081815260036020908152604080832080546001019055848352600290915280822080546001600160a01b0319168417905551839291907fddf252ad1be2c89b69c2b068fc378daa952ba7f163c4a11628f55a4df523b3ef908290a45050565b60008061132883610b8f565b9050806001600160a01b0316846001600160a01b0316148061134f575061134f818561101d565b806113735750836001600160a01b031661136884610628565b6001600160a01b0316145b949350505050565b826001600160a01b031661138e82610b8f565b6001600160a01b0316146113b45760405162461bcd60e51b81526004016106c390611de9565b6001600160a01b0382166114165760405162461bcd60e51b8152602060048201526024808201527f4552433732313a207472616e7366657220746f20746865207a65726f206164646044820152637265737360e01b60648201526084016106c3565b826001600160a01b031661142982610b8f565b6001600160a01b03161461144f5760405162461bcd60e51b81526004016106c390611de9565b600081815260046020908152604080832080546001600160a01b03199081169091556001600160a01b0387811680865260038552838620805460001901905590871680865283862080546001019055868652600290945282852080549092168417909155905184937fddf252ad1be2c89b69c2b068fc378daa952ba7f163c4a11628f55a4df523b3ef91a4505050565b6006546001600160a01b03163314610d155760405162461bcd60e51b815260206004820181905260248201527f4f776e61626c653a2063616c6c6572206973206e6f7420746865206f776e657260448201526064016106c3565b600680546001600160a01b038381166001600160a01b0319831681179093556040519116919082907f8be0079c531659141344cd1fd0a4f28419497f9722a3daafe3b4186f6b6457e090600090a35050565b816001600160a01b0316836001600160a01b0316036115ec5760405162461bcd60e51b815260206004820152601960248201527f4552433732313a20617070726f766520746f2063616c6c65720000000000000060448201526064016106c3565b6001600160a01b03838116600081815260056020908152604080832094871680845294825291829020805460ff191686151590811790915591519182527f17307eab39ab6107e8899845ad3d59bd9653f200f220920489ca2b5937696c31910160405180910390a3505050565b61166484848461137b565b6116708484848461171f565b610b895760405162461bcd60e51b81526004016106c390611e2e565b6060600061169983611820565b600101905060008167ffffffffffffffff8111156116b9576116b9611a87565b6040519080825280601f01601f1916602001820160405280156116e3576020820181803683370190505b5090508181016020015b600019016f181899199a1a9b1b9c1cb0b131b232b360811b600a86061a8153600a85049450846116ed57509392505050565b60006001600160a01b0384163b1561181557604051630a85bd0160e11b81526001600160a01b0385169063150b7a0290611763903390899088908890600401611e80565b6020604051808303816000875af192505050801561179e575060408051601f3d908101601f1916820190925261179b91810190611ebd565b60015b6117fb573d8080156117cc576040519150601f19603f3d011682016040523d82523d6000602084013e6117d1565b606091505b5080516000036117f35760405162461bcd60e51b81526004016106c390611e2e565b805181602001fd5b6001600160e01b031916630a85bd0160e11b149050611373565b506001949350505050565b60008072184f03e93ff9f4daa797ed6e38ed64bf6a1f0160401b831061185f5772184f03e93ff9f4daa797ed6e38ed64bf6a1f0160401b830492506040015b6d04ee2d6d415b85acef8100000000831061188b576d04ee2d6d415b85acef8100000000830492506020015b662386f26fc1000083106118a957662386f26fc10000830492506010015b6305f5e10083106118c1576305f5e100830492506008015b61271083106118d557612710830492506004015b606483106118e7576064830492506002015b600a83106105905760010192915050565b6001600160e01b0319811681146110c157600080fd5b60006020828403121561192057600080fd5b813561192b816118f8565b9392505050565b60005b8381101561194d578181015183820152602001611935565b50506000910152565b6000815180845261196e816020860160208601611932565b601f01601f19169290920160200192915050565b60208152600061192b6020830184611956565b6000602082840312156119a757600080fd5b5035919050565b80356001600160a01b03811681146119c557600080fd5b919050565b600080604083850312156119dd57600080fd5b6119e6836119ae565b946020939093013593505050565b600080600060608486031215611a0957600080fd5b611a12846119ae565b9250611a20602085016119ae565b9150604084013590509250925092565b600060208284031215611a4257600080fd5b61192b826119ae565b60008060408385031215611a5e57600080fd5b611a67836119ae565b915060208301358015158114611a7c57600080fd5b809150509250929050565b634e487b7160e01b600052604160045260246000fd5b60008060008060808587031215611ab357600080fd5b611abc856119ae565b9350611aca602086016119ae565b925060408501359150606085013567ffffffffffffffff80821115611aee57600080fd5b818701915087601f830112611b0257600080fd5b813581811115611b1457611b14611a87565b604051601f8201601f19908116603f01168101908382118183101715611b3c57611b3c611a87565b816040528281528a6020848701011115611b5557600080fd5b82602086016020830137600060208483010152809550505050505092959194509250565b6020808252825182820181905260009190848201906040850190845b81811015611bb157835183529284019291840191600101611b95565b50909695505050505050565b60008060408385031215611bd057600080fd5b611bd9836119ae565b9150611be7602084016119ae565b90509250929050565b600181811c90821680611c0457607f821691505b602082108103611c2457634e487b7160e01b600052602260045260246000fd5b50919050565b634e487b7160e01b600052601160045260246000fd5b8082018082111561059057610590611c2a565b808202811582820484141761059057610590611c2a565b600060018201611c7c57611c7c611c2a565b5060010190565b6020808252602d908201527f4552433732313a2063616c6c6572206973206e6f7420746f6b656e206f776e6560408201526c1c881bdc88185c1c1c9bdd9959609a1b606082015260800190565b634e487b7160e01b600052603260045260246000fd5b8181038181111561059057610590611c2a565b634e487b7160e01b600052603160045260246000fd5b60008151611d21818560208601611932565b9290920192915050565b600080845481600182811c915080831680611d4757607f831692505b60208084108203611d6657634e487b7160e01b86526022600452602486fd5b818015611d7a5760018114611d8f57611dbc565b60ff1986168952841515850289019650611dbc565b60008b81526020902060005b86811015611db45781548b820152908501908301611d9b565b505084890196505b505050505050611de0611dcf8286611d0f565b64173539b7b760d91b815260050190565b95945050505050565b60208082526025908201527f4552433732313a207472616e736665722066726f6d20696e636f72726563742060408201526437bbb732b960d91b606082015260800190565b60208082526032908201527f4552433732313a207472616e7366657220746f206e6f6e20455243373231526560408201527131b2b4bb32b91034b6b83632b6b2b73a32b960711b606082015260800190565b6001600160a01b0385811682528416602082015260408101839052608060608201819052600090611eb390830184611956565b9695505050505050565b600060208284031215611ecf57600080fd5b815161192b816118f856fea2646970667358221220f92c9a727fec4f01a360e43730c6eb5cd5a7f1fb5891571e9145ba6fc92452bd64736f6c63430008130033",
    "linkReferences": {}
  },
  "methodIdentifiers": {
    "approve(address,uint256)": "095ea7b3",
    "balanceOf(address)": "70a08231",
    "baseURI()": "6c0360eb",
    "getApproved(uint256)": "081812fc",
    "getTokenIds(address)": "d004b036",
    "isApprovedForAll(address,address)": "e985e9c5",
    "maxAmountPerTrx()": "0b7ec171",
    "maxSupply()": "d5abeb01",
    "mintNft(uint256)": "0d730acc",
    "name()": "06fdde03",
    "owner()": "8da5cb5b",
    "ownerOf(uint256)": "6352211e",
    "price()": "a035b1fe",
    "renounceOwnership()": "715018a6",
    "safeTransferFrom(address,address,uint256)": "42842e0e",
    "safeTransferFrom(address,address,uint256,bytes)": "b88d4fde",
    "safeTransferFrom(address,uint256)": "551026bb",
    "setApprovalForAll(address,bool)": "a22cb465",
    "supportsInterface(bytes4)": "01ffc9a7",
    "symbol()": "95d89b41",
    "tokenURI(uint256)": "c87b56dd",
    "totalSupply()": "18160ddd",
    "transferFrom(address,address,uint256)": "23b872dd",
    "transferOwnership(address)": "f2fde38b",
    "transferTokens(address,uint256)": "bec3fa17",
    "vaultAddress()": "430bf08a",
    "withdraw()": "3ccfd60b"
  },
  "id": 37
}