{
  "abi": [
    {
      "inputs": [
        {
          "internalType": "string",
          "name": "_name",
          "type": "string"
        },
        {
          "internalType": "string",
          "name": "_symbol",
          "type": "string"
        },
        {
          "internalType": "string",
          "name": "_baseURI",
          "type": "string"
        }
      ],
      "stateMutability": "nonpayable",
      "type": "constructor"
    },
    {
      "inputs": [],
      "name": "NoEthBalance",
      "type": "error"
    },
    {
      "inputs": [],
      "name": "TokenDoesNotExist",
      "type": "error"
    },
    {
      "anonymous": false,
      "inputs": [
        {
          "indexed": true,
          "internalType": "address",
          "name": "owner",
          "type": "address"
        },
        {
          "indexed": true,
          "internalType": "address",
          "name": "approved",
          "type": "address"
        },
        {
          "indexed": true,
          "internalType": "uint256",
          "name": "tokenId",
          "type": "uint256"
        }
      ],
      "name": "Approval",
      "type": "event"
    },
    {
      "anonymous": false,
      "inputs": [
        {
          "indexed": true,
          "internalType": "address",
          "name": "owner",
          "type": "address"
        },
        {
          "indexed": true,
          "internalType": "address",
          "name": "operator",
          "type": "address"
        },
        {
          "indexed": false,
          "internalType": "bool",
          "name": "approved",
          "type": "bool"
        }
      ],
      "name": "ApprovalForAll",
      "type": "event"
    },
    {
      "anonymous": false,
      "inputs": [
        {
          "indexed": true,
          "internalType": "address",
          "name": "previousOwner",
          "type": "address"
        },
        {
          "indexed": true,
          "internalType": "address",
          "name": "newOwner",
          "type": "address"
        }
      ],
      "name": "OwnershipTransferred",
      "type": "event"
    },
    {
      "anonymous": false,
      "inputs": [
        {
          "indexed": true,
          "internalType": "address",
          "name": "from",
          "type": "address"
        },
        {
          "indexed": true,
          "internalType": "address",
          "name": "to",
          "type": "address"
        },
        {
          "indexed": true,
          "internalType": "uint256",
          "name": "tokenId",
          "type": "uint256"
        }
      ],
      "name": "Transfer",
      "type": "event"
    },
    {
      "inputs": [
        {
          "internalType": "address",
          "name": "to",
          "type": "address"
        },
        {
          "internalType": "uint256",
          "name": "tokenId",
          "type": "uint256"
        }
      ],
      "name": "approve",
      "outputs": [],
      "stateMutability": "nonpayable",
      "type": "function"
    },
    {
      "inputs": [
        {
          "internalType": "address",
          "name": "owner",
          "type": "address"
        }
      ],
      "name": "balanceOf",
      "outputs": [
        {
          "internalType": "uint256",
          "name": "",
          "type": "uint256"
        }
      ],
      "stateMutability": "view",
      "type": "function"
    },
    {
      "inputs": [],
      "name": "baseURI",
      "outputs": [
        {
          "internalType": "string",
          "name": "",
          "type": "string"
        }
      ],
      "stateMutability": "view",
      "type": "function"
    },
    {
      "inputs": [
        {
          "internalType": "uint256",
          "name": "tokenId",
          "type": "uint256"
        }
      ],
      "name": "getApproved",
      "outputs": [
        {
          "internalType": "address",
          "name": "",
          "type": "address"
        }
      ],
      "stateMutability": "view",
      "type": "function"
    },
    {
      "inputs": [
        {
          "internalType": "address",
          "name": "_owner",
          "type": "address"
        }
      ],
      "name": "getTokenIds",
      "outputs": [
        {
          "internalType": "uint256[]",
          "name": "",
          "type": "uint256[]"
        }
      ],
      "stateMutability": "view",
      "type": "function"
    },
    {
      "inputs": [
        {
          "internalType": "address",
          "name": "owner",
          "type": "address"
        },
        {
          "internalType": "address",
          "name": "operator",
          "type": "address"
        }
      ],
      "name": "isApprovedForAll",
      "outputs": [
        {
          "internalType": "bool",
          "name": "",
          "type": "bool"
        }
      ],
      "stateMutability": "view",
      "type": "function"
    },
    {
      "inputs": [],
      "name": "maxAmountPerTrx",
      "outputs": [
        {
          "internalType": "uint256",
          "name": "",
          "type": "uint256"
        }
      ],
      "stateMutability": "view",
      "type": "function"
    },
    {
      "inputs": [],
      "name": "maxSupply",
      "outputs": [
        {
          "internalType": "uint256",
          "name": "",
          "type": "uint256"
        }
      ],
      "stateMutability": "view",
      "type": "function"
    },
    {
      "inputs": [
        {
          "internalType": "uint256",
          "name": "amount",
          "type": "uint256"
        }
      ],
      "name": "mintNft",
      "outputs": [],
      "stateMutability": "payable",
      "type": "function"
    },
    {
      "inputs": [],
      "name": "name",
      "outputs": [
        {
          "internalType": "string",
          "name": "",
          "type": "string"
        }
      ],
      "stateMutability": "view",
      "type": "function"
    },
    {
      "inputs": [],
      "name": "owner",
      "outputs": [
        {
          "internalType": "address",
          "name": "",
          "type": "address"
        }
      ],
      "stateMutability": "view",
      "type": "function"
    },
    {
      "inputs": [
        {
          "internalType": "uint256",
          "name": "tokenId",
          "type": "uint256"
        }
      ],
      "name": "ownerOf",
      "outputs": [
        {
          "internalType": "address",
          "name": "",
          "type": "address"
        }
      ],
      "stateMutability": "view",
      "type": "function"
    },
    {
      "inputs": [],
      "name": "price",
      "outputs": [
        {
          "internalType": "uint256",
          "name": "",
          "type": "uint256"
        }
      ],
      "stateMutability": "view",
      "type": "function"
    },
    {
      "inputs": [],
      "name": "renounceOwnership",
      "outputs": [],
      "stateMutability": "nonpayable",
      "type": "function"
    },
    {
      "inputs": [
        {
          "internalType": "address",
          "name": "from",
          "type": "address"
        },
        {
          "internalType": "address",
          "name": "to",
          "type": "address"
        },
        {
          "internalType": "uint256",
          "name": "tokenId",
          "type": "uint256"
        }
      ],
      "name": "safeTransferFrom",
      "outputs": [],
      "stateMutability": "nonpayable",
      "type": "function"
    },
    {
      "inputs": [
        {
          "internalType": "address",
          "name": "from",
          "type": "address"
        },
        {
          "internalType": "address",
          "name": "to",
          "type": "address"
        },
        {
          "internalType": "uint256",
          "name": "tokenId",
          "type": "uint256"
        },
        {
          "internalType": "bytes",
          "name": "data",
          "type": "bytes"
        }
      ],
      "name": "safeTransferFrom",
      "outputs": [],
      "stateMutability": "nonpayable",
      "type": "function"
    },
    {
      "inputs": [
        {
          "internalType": "address",
          "name": "operator",
          "type": "address"
        },
        {
          "internalType": "bool",
          "name": "approved",
          "type": "bool"
        }
      ],
      "name": "setApprovalForAll",
      "outputs": [],
      "stateMutability": "nonpayable",
      "type": "function"
    },
    {
      "inputs": [
        {
          "internalType": "bytes4",
          "name": "interfaceId",
          "type": "bytes4"
        }
      ],
      "name": "supportsInterface",
      "outputs": [
        {
          "internalType": "bool",
          "name": "",
          "type": "bool"
        }
      ],
      "stateMutability": "view",
      "type": "function"
    },
    {
      "inputs": [],
      "name": "symbol",
      "outputs": [
        {
          "internalType": "string",
          "name": "",
          "type": "string"
        }
      ],
      "stateMutability": "view",
      "type": "function"
    },
    {
      "inputs": [
        {
          "internalType": "uint256",
          "name": "tokenId",
          "type": "uint256"
        }
      ],
      "name": "tokenURI",
      "outputs": [
        {
          "internalType": "string",
          "name": "",
          "type": "string"
        }
      ],
      "stateMutability": "view",
      "type": "function"
    },
    {
      "inputs": [],
      "name": "totalSupply",
      "outputs": [
        {
          "internalType": "uint256",
          "name": "",
          "type": "uint256"
        }
      ],
      "stateMutability": "view",
      "type": "function"
    },
    {
      "inputs": [
        {
          "internalType": "address",
          "name": "from",
          "type": "address"
        },
        {
          "internalType": "address",
          "name": "to",
          "type": "address"
        },
        {
          "internalType": "uint256",
          "name": "tokenId",
          "type": "uint256"
        }
      ],
      "name": "transferFrom",
      "outputs": [],
      "stateMutability": "nonpayable",
      "type": "function"
    },
    {
      "inputs": [
        {
          "internalType": "address",
          "name": "newOwner",
          "type": "address"
        }
      ],
      "name": "transferOwnership",
      "outputs": [],
      "stateMutability": "nonpayable",
      "type": "function"
    },
    {
      "inputs": [
        {
          "internalType": "address",
          "name": "_to",
          "type": "address"
        },
        {
          "internalType": "uint256",
          "name": "_tokenId",
          "type": "uint256"
        }
      ],
      "name": "transferTokens",
      "outputs": [],
      "stateMutability": "nonpayable",
      "type": "function"
    },
    {
      "inputs": [],
      "name": "vaultAddress",
      "outputs": [
        {
          "internalType": "address payable",
          "name": "",
          "type": "address"
        }
      ],
      "stateMutability": "view",
      "type": "function"
    },
    {
      "inputs": [],
      "name": "withdraw",
      "outputs": [],
      "stateMutability": "nonpayable",
      "type": "function"
    }
  ],
  "bytecode": {
    "object": "0x60e06040526000600755612710608052670214e8348c4f000060a052600560c0523480156200002d57600080fd5b5060405162002120380380620021208339810160408190526200005091620001d2565b82826000620000608382620002f2565b5060016200006f8282620002f2565b5050506200008c62000086620000b760201b60201c565b620000bb565b60086200009a8282620002f2565b5050600980546001600160a01b0319163317905550620003be9050565b3390565b600680546001600160a01b038381166001600160a01b0319831681179093556040519116919082907f8be0079c531659141344cd1fd0a4f28419497f9722a3daafe3b4186f6b6457e090600090a35050565b634e487b7160e01b600052604160045260246000fd5b600082601f8301126200013557600080fd5b81516001600160401b03808211156200015257620001526200010d565b604051601f8301601f19908116603f011681019082821181831017156200017d576200017d6200010d565b816040528381526020925086838588010111156200019a57600080fd5b600091505b83821015620001be57858201830151818301840152908201906200019f565b600093810190920192909252949350505050565b600080600060608486031215620001e857600080fd5b83516001600160401b03808211156200020057600080fd5b6200020e8783880162000123565b945060208601519150808211156200022557600080fd5b620002338783880162000123565b935060408601519150808211156200024a57600080fd5b50620002598682870162000123565b9150509250925092565b600181811c908216806200027857607f821691505b6020821081036200029957634e487b7160e01b600052602260045260246000fd5b50919050565b601f821115620002ed57600081815260208120601f850160051c81016020861015620002c85750805b601f850160051c820191505b81811015620002e957828155600101620002d4565b5050505b505050565b81516001600160401b038111156200030e576200030e6200010d565b62000326816200031f845462000263565b846200029f565b602080601f8311600181146200035e5760008415620003455750858301515b600019600386901b1c1916600185901b178555620002e9565b600085815260208120601f198616915b828110156200038f578886015182559484019460019091019084016200036e565b5085821015620003ae5787850151600019600388901b60f8161c191681555b5050505050600190811b01905550565b60805160a05160c051611d1d620004036000396000818161024901526107300152600081816103c601526108090152600081816104a701526107940152611d1d6000f3fe6080604052600436106101815760003560e01c806370a08231116100d1578063b88d4fde1161008a578063d004b03611610064578063d004b03614610468578063d5abeb0114610495578063e985e9c5146104c9578063f2fde38b146104e957600080fd5b8063b88d4fde14610408578063bec3fa1714610428578063c87b56dd1461044857600080fd5b806370a082311461034c578063715018a61461036c5780638da5cb5b1461038157806395d89b411461039f578063a035b1fe146103b4578063a22cb465146103e857600080fd5b806318160ddd1161013e57806342842e0e1161011857806342842e0e146102d7578063430bf08a146102f75780636352211e146103175780636c0360eb1461033757600080fd5b806318160ddd1461028c57806323b872dd146102a25780633ccfd60b146102c257600080fd5b806301ffc9a71461018657806306fdde03146101bb578063081812fc146101dd578063095ea7b3146102155780630b7ec171146102375780630d730acc14610279575b600080fd5b34801561019257600080fd5b506101a66101a136600461171b565b610509565b60405190151581526020015b60405180910390f35b3480156101c757600080fd5b506101d061055b565b6040516101b2919061178f565b3480156101e957600080fd5b506101fd6101f83660046117a2565b6105ed565b6040516001600160a01b0390911681526020016101b2565b34801561022157600080fd5b506102356102303660046117d7565b610614565b005b34801561024357600080fd5b5061026b7f000000000000000000000000000000000000000000000000000000000000000081565b6040519081526020016101b2565b6102356102873660046117a2565b61072e565b34801561029857600080fd5b5061026b60075481565b3480156102ae57600080fd5b506102356102bd366004611801565b6108e1565b3480156102ce57600080fd5b50610235610912565b3480156102e357600080fd5b506102356102f2366004611801565b610975565b34801561030357600080fd5b506009546101fd906001600160a01b031681565b34801561032357600080fd5b506101fd6103323660046117a2565b610990565b34801561034357600080fd5b506101d06109f0565b34801561035857600080fd5b5061026b61036736600461183d565b610a7e565b34801561037857600080fd5b50610235610b04565b34801561038d57600080fd5b506006546001600160a01b03166101fd565b3480156103ab57600080fd5b506101d0610b18565b3480156103c057600080fd5b5061026b7f000000000000000000000000000000000000000000000000000000000000000081565b3480156103f457600080fd5b50610235610403366004611858565b610b27565b34801561041457600080fd5b506102356104233660046118aa565b610b32565b34801561043457600080fd5b506102356104433660046117d7565b610b6a565b34801561045457600080fd5b506101d06104633660046117a2565b610d2e565b34801561047457600080fd5b5061048861048336600461183d565b610dbe565b6040516101b29190611986565b3480156104a157600080fd5b5061026b7f000000000000000000000000000000000000000000000000000000000000000081565b3480156104d557600080fd5b506101a66104e43660046119ca565b610e2a565b3480156104f557600080fd5b5061023561050436600461183d565b610e58565b60006001600160e01b031982166380ac58cd60e01b148061053a57506001600160e01b03198216635b5e139f60e01b145b8061055557506301ffc9a760e01b6001600160e01b03198316145b92915050565b60606000805461056a906119fd565b80601f0160208091040260200160405190810160405280929190818152602001828054610596906119fd565b80156105e35780601f106105b8576101008083540402835291602001916105e3565b820191906000526020600020905b8154815290600101906020018083116105c657829003601f168201915b5050505050905090565b60006105f882610ed1565b506000908152600460205260409020546001600160a01b031690565b600061061f82610990565b9050806001600160a01b0316836001600160a01b0316036106915760405162461bcd60e51b815260206004820152602160248201527f4552433732313a20617070726f76616c20746f2063757272656e74206f776e656044820152603960f91b60648201526084015b60405180910390fd5b336001600160a01b03821614806106ad57506106ad8133610e2a565b61071f5760405162461bcd60e51b815260206004820152603d60248201527f4552433732313a20617070726f76652063616c6c6572206973206e6f7420746f60448201527f6b656e206f776e6572206f7220617070726f76656420666f7220616c6c0000006064820152608401610688565b6107298383610f30565b505050565b7f00000000000000000000000000000000000000000000000000000000000000008111156107925760405162461bcd60e51b815260206004820152601160248201527043616e6e6f74206d696e74203e2035202160781b6044820152606401610688565b7f0000000000000000000000000000000000000000000000000000000000000000816007546107c19190611a4d565b11156108035760405162461bcd60e51b81526020600482015260116024820152705265616368206d617820737570706c792160781b6044820152606401610688565b61082d817f0000000000000000000000000000000000000000000000000000000000000000611a60565b34101561086e5760405162461bcd60e51b815260206004820152600f60248201526e4e65656420746f207061792075702160881b6044820152606401610688565b60005b818110156108dd576000600754600161088a9190611a4d565b90506108963382610f9e565b600780549060006108a683611a77565b9091555050336000908152600a602090815260408220805460018101825590835291200155806108d581611a77565b915050610871565b5050565b6108eb3382611129565b6109075760405162461bcd60e51b815260040161068890611a90565b610729838383611188565b61091a6112ec565b4760000361093b5760405163150111e760e31b815260040160405180910390fd5b60095460405147916001600160a01b03169082156108fc029083906000818181858888f193505050501580156108dd573d6000803e3d6000fd5b61072983838360405180602001604052806000815250610b32565b6000818152600260205260408120546001600160a01b0316806105555760405162461bcd60e51b8152602060048201526018602482015277115490cdcc8c4e881a5b9d985b1a59081d1bdad95b88125160421b6044820152606401610688565b600880546109fd906119fd565b80601f0160208091040260200160405190810160405280929190818152602001828054610a29906119fd565b8015610a765780601f10610a4b57610100808354040283529160200191610a76565b820191906000526020600020905b815481529060010190602001808311610a5957829003601f168201915b505050505081565b60006001600160a01b038216610ae85760405162461bcd60e51b815260206004820152602960248201527f4552433732313a2061646472657373207a65726f206973206e6f7420612076616044820152683634b21037bbb732b960b91b6064820152608401610688565b506001600160a01b031660009081526003602052604090205490565b610b0c6112ec565b610b166000611346565b565b60606001805461056a906119fd565b6108dd338383611398565b610b3c3383611129565b610b585760405162461bcd60e51b815260040161068890611a90565b610b6484848484611466565b50505050565b6000818152600260205260409020546001600160a01b0316610bce5760405162461bcd60e51b815260206004820152601760248201527f546f6b656e20494420646f6573206e6f742065786973740000000000000000006044820152606401610688565b610bd83382611129565b610c1c5760405162461bcd60e51b8152602060048201526015602482015274139bdd081bdddb995c881bdc88185c1c1c9bdd9959605a1b6044820152606401610688565b6000610c2782610990565b6001600160a01b0381166000908152600a602052604081209192505b8154811015610cf75783828281548110610c5f57610c5f611add565b906000526020600020015403610ce55781548290610c7f90600190611af3565b81548110610c8f57610c8f611add565b9060005260206000200154828281548110610cac57610cac611add565b906000526020600020018190555081805480610cca57610cca611b06565b60019003818190600052602060002001600090559055610cf7565b80610cef81611a77565b915050610c43565b506001600160a01b0384166000908152600a6020908152604082208054600181018255908352912001839055610b64828585610975565b60606000610d3b83610990565b6001600160a01b031603610d625760405163677510db60e11b815260040160405180910390fd5b600060088054610d71906119fd565b905011610d8d5760405180602001604052806000815250610555565b6008610d9883611499565b604051602001610da9929190611b38565b60405160208183030381529060405292915050565b6001600160a01b0381166000908152600a6020908152604091829020805483518184028101840190945280845260609392830182828015610e1e57602002820191906000526020600020905b815481526020019060010190808311610e0a575b50505050509050919050565b6001600160a01b03918216600090815260056020908152604080832093909416825291909152205460ff1690565b610e606112ec565b6001600160a01b038116610ec55760405162461bcd60e51b815260206004820152602660248201527f4f776e61626c653a206e6577206f776e657220697320746865207a65726f206160448201526564647265737360d01b6064820152608401610688565b610ece81611346565b50565b6000818152600260205260409020546001600160a01b0316610ece5760405162461bcd60e51b8152602060048201526018602482015277115490cdcc8c4e881a5b9d985b1a59081d1bdad95b88125160421b6044820152606401610688565b600081815260046020526040902080546001600160a01b0319166001600160a01b0384169081179091558190610f6582610990565b6001600160a01b03167f8c5be1e5ebec7d5bd14f71427d1e84f3dd0314c0f7b2291e5b200ac8c7c3b92560405160405180910390a45050565b6001600160a01b038216610ff45760405162461bcd60e51b815260206004820181905260248201527f4552433732313a206d696e7420746f20746865207a65726f20616464726573736044820152606401610688565b6000818152600260205260409020546001600160a01b0316156110595760405162461bcd60e51b815260206004820152601c60248201527f4552433732313a20746f6b656e20616c7265616479206d696e746564000000006044820152606401610688565b6000818152600260205260409020546001600160a01b0316156110be5760405162461bcd60e51b815260206004820152601c60248201527f4552433732313a20746f6b656e20616c7265616479206d696e746564000000006044820152606401610688565b6001600160a01b038216600081815260036020908152604080832080546001019055848352600290915280822080546001600160a01b0319168417905551839291907fddf252ad1be2c89b69c2b068fc378daa952ba7f163c4a11628f55a4df523b3ef908290a45050565b60008061113583610990565b9050806001600160a01b0316846001600160a01b0316148061115c575061115c8185610e2a565b806111805750836001600160a01b0316611175846105ed565b6001600160a01b0316145b949350505050565b826001600160a01b031661119b82610990565b6001600160a01b0316146111c15760405162461bcd60e51b815260040161068890611bf6565b6001600160a01b0382166112235760405162461bcd60e51b8152602060048201526024808201527f4552433732313a207472616e7366657220746f20746865207a65726f206164646044820152637265737360e01b6064820152608401610688565b826001600160a01b031661123682610990565b6001600160a01b03161461125c5760405162461bcd60e51b815260040161068890611bf6565b600081815260046020908152604080832080546001600160a01b03199081169091556001600160a01b0387811680865260038552838620805460001901905590871680865283862080546001019055868652600290945282852080549092168417909155905184937fddf252ad1be2c89b69c2b068fc378daa952ba7f163c4a11628f55a4df523b3ef91a4505050565b6006546001600160a01b03163314610b165760405162461bcd60e51b815260206004820181905260248201527f4f776e61626c653a2063616c6c6572206973206e6f7420746865206f776e65726044820152606401610688565b600680546001600160a01b038381166001600160a01b0319831681179093556040519116919082907f8be0079c531659141344cd1fd0a4f28419497f9722a3daafe3b4186f6b6457e090600090a35050565b816001600160a01b0316836001600160a01b0316036113f95760405162461bcd60e51b815260206004820152601960248201527f4552433732313a20617070726f766520746f2063616c6c6572000000000000006044820152606401610688565b6001600160a01b03838116600081815260056020908152604080832094871680845294825291829020805460ff191686151590811790915591519182527f17307eab39ab6107e8899845ad3d59bd9653f200f220920489ca2b5937696c31910160405180910390a3505050565b611471848484611188565b61147d8484848461152c565b610b645760405162461bcd60e51b815260040161068890611c3b565b606060006114a68361162d565b600101905060008167ffffffffffffffff8111156114c6576114c6611894565b6040519080825280601f01601f1916602001820160405280156114f0576020820181803683370190505b5090508181016020015b600019016f181899199a1a9b1b9c1cb0b131b232b360811b600a86061a8153600a85049450846114fa57509392505050565b60006001600160a01b0384163b1561162257604051630a85bd0160e11b81526001600160a01b0385169063150b7a0290611570903390899088908890600401611c8d565b6020604051808303816000875af19250505080156115ab575060408051601f3d908101601f191682019092526115a891810190611cca565b60015b611608573d8080156115d9576040519150601f19603f3d011682016040523d82523d6000602084013e6115de565b606091505b5080516000036116005760405162461bcd60e51b815260040161068890611c3b565b805181602001fd5b6001600160e01b031916630a85bd0160e11b149050611180565b506001949350505050565b60008072184f03e93ff9f4daa797ed6e38ed64bf6a1f0160401b831061166c5772184f03e93ff9f4daa797ed6e38ed64bf6a1f0160401b830492506040015b6d04ee2d6d415b85acef81000000008310611698576d04ee2d6d415b85acef8100000000830492506020015b662386f26fc1000083106116b657662386f26fc10000830492506010015b6305f5e10083106116ce576305f5e100830492506008015b61271083106116e257612710830492506004015b606483106116f4576064830492506002015b600a83106105555760010192915050565b6001600160e01b031981168114610ece57600080fd5b60006020828403121561172d57600080fd5b813561173881611705565b9392505050565b60005b8381101561175a578181015183820152602001611742565b50506000910152565b6000815180845261177b81602086016020860161173f565b601f01601f19169290920160200192915050565b6020815260006117386020830184611763565b6000602082840312156117b457600080fd5b5035919050565b80356001600160a01b03811681146117d257600080fd5b919050565b600080604083850312156117ea57600080fd5b6117f3836117bb565b946020939093013593505050565b60008060006060848603121561181657600080fd5b61181f846117bb565b925061182d602085016117bb565b9150604084013590509250925092565b60006020828403121561184f57600080fd5b611738826117bb565b6000806040838503121561186b57600080fd5b611874836117bb565b91506020830135801515811461188957600080fd5b809150509250929050565b634e487b7160e01b600052604160045260246000fd5b600080600080608085870312156118c057600080fd5b6118c9856117bb565b93506118d7602086016117bb565b925060408501359150606085013567ffffffffffffffff808211156118fb57600080fd5b818701915087601f83011261190f57600080fd5b81358181111561192157611921611894565b604051601f8201601f19908116603f0116810190838211818310171561194957611949611894565b816040528281528a602084870101111561196257600080fd5b82602086016020830137600060208483010152809550505050505092959194509250565b6020808252825182820181905260009190848201906040850190845b818110156119be578351835292840192918401916001016119a2565b50909695505050505050565b600080604083850312156119dd57600080fd5b6119e6836117bb565b91506119f4602084016117bb565b90509250929050565b600181811c90821680611a1157607f821691505b602082108103611a3157634e487b7160e01b600052602260045260246000fd5b50919050565b634e487b7160e01b600052601160045260246000fd5b8082018082111561055557610555611a37565b808202811582820484141761055557610555611a37565b600060018201611a8957611a89611a37565b5060010190565b6020808252602d908201527f4552433732313a2063616c6c6572206973206e6f7420746f6b656e206f776e6560408201526c1c881bdc88185c1c1c9bdd9959609a1b606082015260800190565b634e487b7160e01b600052603260045260246000fd5b8181038181111561055557610555611a37565b634e487b7160e01b600052603160045260246000fd5b60008151611b2e81856020860161173f565b9290920192915050565b600080845481600182811c915080831680611b5457607f831692505b60208084108203611b7357634e487b7160e01b86526022600452602486fd5b818015611b875760018114611b9c57611bc9565b60ff1986168952841515850289019650611bc9565b60008b81526020902060005b86811015611bc15781548b820152908501908301611ba8565b505084890196505b505050505050611bed611bdc8286611b1c565b64173539b7b760d91b815260050190565b95945050505050565b60208082526025908201527f4552433732313a207472616e736665722066726f6d20696e636f72726563742060408201526437bbb732b960d91b606082015260800190565b60208082526032908201527f4552433732313a207472616e7366657220746f206e6f6e20455243373231526560408201527131b2b4bb32b91034b6b83632b6b2b73a32b960711b606082015260800190565b6001600160a01b0385811682528416602082015260408101839052608060608201819052600090611cc090830184611763565b9695505050505050565b600060208284031215611cdc57600080fd5b81516117388161170556fea2646970667358221220421402078d2a58660aed821f5adcc680bde9c4e9a3d41ce813b6ace96ead07eb64736f6c63430008130033",
    "linkReferences": {}
  },
  "methodIdentifiers": {
    "approve(address,uint256)": "095ea7b3",
    "balanceOf(address)": "70a08231",
    "baseURI()": "6c0360eb",
    "getApproved(uint256)": "081812fc",
    "getTokenIds(address)": "d004b036",
    "isApprovedForAll(address,address)": "e985e9c5",
    "maxAmountPerTrx()": "0b7ec171",
    "maxSupply()": "d5abeb01",
    "mintNft(uint256)": "0d730acc",
    "name()": "06fdde03",
    "owner()": "8da5cb5b",
    "ownerOf(uint256)": "6352211e",
    "price()": "a035b1fe",
    "renounceOwnership()": "715018a6",
    "safeTransferFrom(address,address,uint256)": "42842e0e",
    "safeTransferFrom(address,address,uint256,bytes)": "b88d4fde",
    "setApprovalForAll(address,bool)": "a22cb465",
    "supportsInterface(bytes4)": "01ffc9a7",
    "symbol()": "95d89b41",
    "tokenURI(uint256)": "c87b56dd",
    "totalSupply()": "18160ddd",
    "transferFrom(address,address,uint256)": "23b872dd",
    "transferOwnership(address)": "f2fde38b",
    "transferTokens(address,uint256)": "bec3fa17",
    "vaultAddress()": "430bf08a",
    "withdraw()": "3ccfd60b"
  },
  "id": 30
}