{
  "abi": [
    {
      "inputs": [
        {
          "internalType": "address",
          "name": "_token",
          "type": "address"
        },
        {
          "internalType": "address",
          "name": "_CelestiaNFT",
          "type": "address"
        }
      ],
      "stateMutability": "nonpayable",
      "type": "constructor"
    },
    {
      "anonymous": false,
      "inputs": [
        {
          "indexed": true,
          "internalType": "address",
          "name": "owner",
          "type": "address"
        },
        {
          "indexed": false,
          "internalType": "uint256",
          "name": "reward",
          "type": "uint256"
        }
      ],
      "name": "ClaimReward",
      "type": "event"
    },
    {
      "anonymous": false,
      "inputs": [
        {
          "indexed": true,
          "internalType": "address",
          "name": "owner",
          "type": "address"
        },
        {
          "indexed": false,
          "internalType": "uint256",
          "name": "id",
          "type": "uint256"
        }
      ],
      "name": "Stake",
      "type": "event"
    },
    {
      "anonymous": false,
      "inputs": [
        {
          "indexed": true,
          "internalType": "address",
          "name": "owner",
          "type": "address"
        },
        {
          "indexed": false,
          "internalType": "uint256",
          "name": "id",
          "type": "uint256"
        },
        {
          "indexed": false,
          "internalType": "uint256",
          "name": "rewardTokens",
          "type": "uint256"
        }
      ],
      "name": "UnStake",
      "type": "event"
    },
    {
      "inputs": [],
      "name": "claimPendingReward",
      "outputs": [],
      "stateMutability": "nonpayable",
      "type": "function"
    },
    {
      "inputs": [
        {
          "internalType": "address",
          "name": "owner",
          "type": "address"
        }
      ],
      "name": "getPendingRewards",
      "outputs": [
        {
          "internalType": "uint256[][]",
          "name": "",
          "type": "uint256[][]"
        }
      ],
      "stateMutability": "view",
      "type": "function"
    },
    {
      "inputs": [
        {
          "internalType": "address",
          "name": "owner",
          "type": "address"
        }
      ],
      "name": "getStakingNFTs",
      "outputs": [
        {
          "internalType": "uint256[]",
          "name": "",
          "type": "uint256[]"
        }
      ],
      "stateMutability": "view",
      "type": "function"
    },
    {
      "inputs": [],
      "name": "nftContract",
      "outputs": [
        {
          "internalType": "contract CelestiaNFT",
          "name": "",
          "type": "address"
        }
      ],
      "stateMutability": "view",
      "type": "function"
    },
    {
      "inputs": [
        {
          "internalType": "address",
          "name": "",
          "type": "address"
        },
        {
          "internalType": "address",
          "name": "",
          "type": "address"
        },
        {
          "internalType": "uint256",
          "name": "",
          "type": "uint256"
        },
        {
          "internalType": "bytes",
          "name": "",
          "type": "bytes"
        }
      ],
      "name": "onERC721Received",
      "outputs": [
        {
          "internalType": "bytes4",
          "name": "",
          "type": "bytes4"
        }
      ],
      "stateMutability": "nonpayable",
      "type": "function"
    },
    {
      "inputs": [
        {
          "internalType": "uint256",
          "name": "_tokenId",
          "type": "uint256"
        }
      ],
      "name": "stake",
      "outputs": [],
      "stateMutability": "nonpayable",
      "type": "function"
    },
    {
      "inputs": [
        {
          "internalType": "address",
          "name": "",
          "type": "address"
        },
        {
          "internalType": "uint256",
          "name": "",
          "type": "uint256"
        }
      ],
      "name": "stakes",
      "outputs": [
        {
          "internalType": "uint256",
          "name": "tokenId",
          "type": "uint256"
        },
        {
          "internalType": "uint256",
          "name": "timestamp",
          "type": "uint256"
        },
        {
          "internalType": "bool",
          "name": "isActive",
          "type": "bool"
        }
      ],
      "stateMutability": "view",
      "type": "function"
    },
    {
      "inputs": [
        {
          "internalType": "uint256",
          "name": "_tokenId",
          "type": "uint256"
        }
      ],
      "name": "unStake",
      "outputs": [],
      "stateMutability": "nonpayable",
      "type": "function"
    }
  ],
  "bytecode": {
    "object": "0x60806040526228206f600355610e1060045534801561001d57600080fd5b5060405161101438038061101483398101604081905261003c91610089565b600180546001600160a01b039384166001600160a01b031991821617909155600080549290931691161790556100bc565b80516001600160a01b038116811461008457600080fd5b919050565b6000806040838503121561009c57600080fd5b6100a58361006d565b91506100b36020840161006d565b90509250929050565b610f49806100cb6000396000f3fe608060405234801561001057600080fd5b50600436106100885760003560e01c8063a694fc3a1161005b578063a694fc3a1461012e578063d4fbc95614610141578063d56d229d14610149578063f6ed20171461017457600080fd5b8063150b7a021461008d5780632e4d4897146100c9578063584b62a1146100e95780635d3eea9114610119575b600080fd5b6100ab61009b366004610c00565b630a85bd0160e11b949350505050565b6040516001600160e01b031990911681526020015b60405180910390f35b6100dc6100d7366004610ce0565b610194565b6040516100c09190610d04565b6100fc6100f7366004610d48565b61029c565b6040805193845260208401929092521515908201526060016100c0565b61012c610127366004610d74565b6102e1565b005b61012c61013c366004610d74565b610517565b61012c6106cb565b60005461015c906001600160a01b031681565b6040516001600160a01b0390911681526020016100c0565b610187610182366004610ce0565b61096f565b6040516100c09190610d8d565b6001600160a01b038116600090815260056020526040812080546060929067ffffffffffffffff8111156101ca576101ca610bea565b6040519080825280602002602001820160405280156101f3578160200160208202803683370190505b5090506000805b83548110156102925783818154811061021557610215610e17565b600091825260209091206002600390920201015460ff16156102805783818154811061024357610243610e17565b90600052602060002090600302016000015483838151811061026757610267610e17565b60209081029190910101528161027c81610e43565b9250505b8061028a81610e43565b9150506101fa565b5081529392505050565b600560205281600052604060002081815481106102b857600080fd5b600091825260209091206003909102018054600182015460029092015490935090915060ff1683565b336000908152600560205260408120906102fb8284610b56565b905060001981036103465760405162461bcd60e51b815260206004820152601060248201526f151bdad95b881b9bdd081cdd185ad95960821b60448201526064015b60405180910390fd5b600082828154811061035a5761035a610e17565b60009182526020909120600390910201600281015490915060ff166103c15760405162461bcd60e51b815260206004820152601b60248201527f5374616b696e6720697320616c726561647920696e6163746976650000000000604482015260640161033d565b60006004548260010154426103d69190610e5c565b6103e09190610e6f565b905060006103ed82610bb3565b60015460405163a9059cbb60e01b8152336004820152602481018390529192506001600160a01b03169063a9059cbb906044016020604051808303816000875af115801561043f573d6000803e3d6000fd5b505050506040513d601f19601f820116820180604052508101906104639190610e91565b5060005460405163bec3fa1760e01b8152336004820152602481018890526001600160a01b039091169063bec3fa1790604401600060405180830381600087803b1580156104b057600080fd5b505af11580156104c4573d6000803e3d6000fd5b5050505060028301805460ff19169055604080518781526020810183905233917f54a9763035584fc4fcad1bc4e0e7a83f93e016f50ae32bd527530a77257393ee910160405180910390a2505050505050565b6000546040516331a9108f60e11b81526004810183905233916001600160a01b031690636352211e90602401602060405180830381865afa158015610560573d6000803e3d6000fd5b505050506040513d601f19601f820116820180604052508101906105849190610eb3565b6001600160a01b0316146105cf5760405162461bcd60e51b8152602060048201526012602482015271596f75277265206e6f74206f776e6572202160701b604482015260640161033d565b33600090815260056020908152604080832081516060810183528581524281850190815260018285018181528454808301865594885295872092516003909402909201928355519082015591516002909201805460ff1916921515929092179091559054905163bec3fa1760e01b8152306004820152602481018390526001600160a01b039091169063bec3fa1790604401600060405180830381600087803b15801561067b57600080fd5b505af115801561068f573d6000803e3d6000fd5b50506040518381523392507febedb8b3c678666e7f36970bc8f57abf6d8fa2e828c0da91ea5b75bf68ed101a915060200160405180910390a250565b33600090815260056020526040812090805b82548110156107b6578281815481106106f8576106f8610e17565b600091825260209091206002600390920201015460ff16156107a457600083828154811061072857610728610e17565b90600052602060002090600302016001015490506000600454824261074d9190610e5c565b6107579190610e6f565b9050600061076482610bb3565b905080156107a0574286858154811061077f5761077f610e17565b600091825260209091206001600390920201015561079d8186610ed0565b94505b5050505b806107ae81610e43565b9150506106dd565b50600081116107fb5760405162461bcd60e51b81526020600482015260116024820152701b9bc81c195b991a5b99c81c995dd85c99607a1b604482015260640161033d565b6001546040516370a0823160e01b815230600482015282916001600160a01b0316906370a0823190602401602060405180830381865afa158015610843573d6000803e3d6000fd5b505050506040513d601f19601f820116820180604052508101906108679190610ee3565b10156108c05760405162461bcd60e51b815260206004820152602260248201527f5374616b696e6720636f6e7472616374206e6f7420656e6f75676820746f6b656044820152616e2160f01b606482015260840161033d565b60405181815233907fba8de60c3403ec381d1d484652ea1980e3c3e56359195c92525bff4ce47ad98e9060200160405180910390a260015460405163a9059cbb60e01b8152336004820152602481018390526001600160a01b039091169063a9059cbb906044016020604051808303816000875af1158015610946573d6000803e3d6000fd5b505050506040513d601f19601f8201168201806040525081019061096a9190610e91565b505050565b6001600160a01b038116600090815260056020526040812080546060929067ffffffffffffffff8111156109a5576109a5610bea565b6040519080825280602002602001820160405280156109d857816020015b60608152602001906001900390816109c35790505b50905060005b8254811015610b4e578281815481106109f9576109f9610e17565b600091825260209091206002600390920201015460ff1615610b3c576000838281548110610a2957610a29610e17565b906000526020600020906003020160010154905060006004548242610a4e9190610e5c565b610a589190610e6f565b90506000610a6582610bb3565b604080516002808252606082018352929350919060208301908036833701905050858581518110610a9857610a98610e17565b6020026020010181905250858481548110610ab557610ab5610e17565b906000526020600020906003020160000154858581518110610ad957610ad9610e17565b6020026020010151600081518110610af357610af3610e17565b60200260200101818152505080858581518110610b1257610b12610e17565b6020026020010151600181518110610b2c57610b2c610e17565b6020026020010181815250505050505b80610b4681610e43565b9150506109de565b509392505050565b6000805b8354811015610ba65782848281548110610b7657610b76610e17565b90600052602060002090600302016000015403610b94579050610bad565b80610b9e81610e43565b915050610b5a565b5060001990505b92915050565b6000610bc0826005610efc565b610bad90670de0b6b3a7640000610efc565b6001600160a01b0381168114610be757600080fd5b50565b634e487b7160e01b600052604160045260246000fd5b60008060008060808587031215610c1657600080fd5b8435610c2181610bd2565b93506020850135610c3181610bd2565b925060408501359150606085013567ffffffffffffffff80821115610c5557600080fd5b818701915087601f830112610c6957600080fd5b813581811115610c7b57610c7b610bea565b604051601f8201601f19908116603f01168101908382118183101715610ca357610ca3610bea565b816040528281528a6020848701011115610cbc57600080fd5b82602086016020830137600060208483010152809550505050505092959194509250565b600060208284031215610cf257600080fd5b8135610cfd81610bd2565b9392505050565b6020808252825182820181905260009190848201906040850190845b81811015610d3c57835183529284019291840191600101610d20565b50909695505050505050565b60008060408385031215610d5b57600080fd5b8235610d6681610bd2565b946020939093013593505050565b600060208284031215610d8657600080fd5b5035919050565b6000602080830181845280855180835260408601915060408160051b87010192508387016000805b83811015610e0957888603603f19018552825180518088529088019088880190845b81811015610df35783518352928a0192918a0191600101610dd7565b5090975050509386019391860191600101610db5565b509398975050505050505050565b634e487b7160e01b600052603260045260246000fd5b634e487b7160e01b600052601160045260246000fd5b600060018201610e5557610e55610e2d565b5060010190565b81810381811115610bad57610bad610e2d565b600082610e8c57634e487b7160e01b600052601260045260246000fd5b500490565b600060208284031215610ea357600080fd5b81518015158114610cfd57600080fd5b600060208284031215610ec557600080fd5b8151610cfd81610bd2565b80820180821115610bad57610bad610e2d565b600060208284031215610ef557600080fd5b5051919050565b8082028115828204841417610bad57610bad610e2d56fea2646970667358221220ae0f9565eda45a0a19192c8aead488cd5371603ec8f558b54805d86d6d1e1dd464736f6c63430008130033",
    "linkReferences": {}
  },
  "methodIdentifiers": {
    "claimPendingReward()": "d4fbc956",
    "getPendingRewards(address)": "f6ed2017",
    "getStakingNFTs(address)": "2e4d4897",
    "nftContract()": "d56d229d",
    "onERC721Received(address,address,uint256,bytes)": "150b7a02",
    "stake(uint256)": "a694fc3a",
    "stakes(address,uint256)": "584b62a1",
    "unStake(uint256)": "5d3eea91"
  },
  "id": 38
}